:1020000000800020454300002F4300002F430000C4
:1020100000000000000000000000000000000000C0
:102020000000000000000000000000002F4300003E
:1020300000000000000000002F4300009943000052
:102040002F4300002F4300002F4300002F430000C8
:102050002F4300002F4300002F43000031430000B6
:102060002F430000FD2800002F4300002F430000F5
:102070002F4300002F4300002F4300002F43000098
:102080002F4300002F4300002F4300002F43000088
:10209000000000002F4300002F4300002F430000EA
:1020A0002F4300002F4300002F4300002F43000068
:1020B0000000000010B5064C2378002B07D1054B1B
:1020C000002B02D0044800E000BF0123237010BDA4
:1020D0000001002000000000A8780000044B10B5AB
:1020E000002B03D00349044800E000BF10BDC046E8
:1020F0000000000004010020A878000010B5FA24B8
:10210000A40000F095F8200002F08AF900F032F8FF
:10211000200002F085F910BD70B5134802F080F977
:1021200000F094F8041C00F065F81049201C02F03F
:10213000B5FE002808D00E4D2B78002B04D100F0FE
:1021400035F801232B7070BD0849201C02F09CFE5D
:102150000028F8D0064C2378012BF4D100F038F891
:1021600000232370EFE7C046102700000000F04175
:102170001C010020962110B50A4C8901200000F0B6
:10218000F7FE0121122002F0FDFA0121122002F0D7
:1021900029FBFA20800002F043F92000024900F0F8
:1021A00025FC10BD680400204872000010B5002115
:1021B000122002F017FBFA20800002F031F90249E8
:1021C000024800F013FC10BD657200006804002096
:1021D00010B50121122002F005FBFA20800002F068
:1021E0001FF90249024800F001FC10BD7D72000099
:1021F0006804002070B5122002F020FB45424541E2
:10220000074E08490400300000F0DEFBEDB206493D
:10221000002C00D10549300000F0E8FB280070BD1B
:10222000680400209A7200008E720000957200000F
:10223000962110B50348890100F09AFE024800F08B
:10224000FBFA10BD680400203401002037B50D4CA6
:10225000200000F069FA0C4D0C49280000F0B4FB96
:102260000021200000F038FB04F050FE0B0002219A
:1022700002000091280000F09FFC0021200000F0E7
:102280002BFB3EBD3401002068040020B472000026
:1022900010B5054C0B21200000F0B4F821000348D4
:1022A00000F07CF910BDC046200100203401002060
:1022B00010B50368426872B6536062B67D20202470
:1022C0000138C0B200281DD021000139FDD1116AAA
:1022D0000B42F5D072B65361936062B6F0214901AA
:1022E0000139FDD172B68C215360C9000139FDD18D
:1022F000106A034058425841C0B262B6CD235B0118
:10230000013BFDD110BD0CC8C9070CD572B6A02188
:102310005A619A600139FDD19A6162B6DC239B0053
:10232000013BFDD1704772B682215A61C9009A60A3
:102330000139FDD19A6162B65023F1E70368426822
:1023400072B63021936053610139FDD1A0215360F1
:102350000139FDD1106A62B6D4229200013AFDD152
:102360000340581E8341D8B27047F7B504000F00F0
:10237000082601250192290039404B1E9941200071
:10238000C9B26D00013EFFF7BEFFEDB2002EF2D1E3
:10239000019B002B04D172B60CCC5A605A6162B614
:1023A000F7BDF8B507000826002501243800FFF71F
:1023B000C5FF002800D025436400013EE4B2002E92
:1023C000F4D12800F8BD70B50C000022552126007C
:1023D0000500FFF7CAFF08362178002228000134E3
:1023E000FFF7C3FFB442F7D170BD10B50022CC2176
:1023F000FFF7BBFF10BD00238360C36003828374BB
:102400007047000070B50D0004000021280002F0A4
:10241000B9F918216943074A5318586801238340C2
:1024200023608B56044ADB019B1820006360FFF792
:10243000E2FF70BDF072000000440041F0B585B0CD
:102440000391867C05001400002E03D1FFF730FFB6
:10245000002804D100202882A87405B0F0BD002C0B
:1024600029D03200F02101272800FFF77EFF00234A
:102470003E00019302932800FFF760FF040028004C
:10248000FFF75CFF012C19D1012831D1402EE1D991
:10249000029B2B74002B01D10133AB742B7A002BE0
:1024A000D8D000230835EA5C0399CA540133082BBD
:1024B000F9D10120D1E72200EC21D4E7019BEB18F0
:1024C00084420DD12C7CB4420ED91C7A3C40601E53
:1024D0008441E4B2002C0BD10296082E00D86E7411
:1024E0001A7ABA431A7209E0A41B60424441F0E729
:1024F0000124019BEA18137A3B4313727F002100E9
:1025000028000136FFB2FFF7FEFEF6B2002F04D11D
:10251000019B01370133DBB20193019B072BAAD941
:10252000B4E70000030030B541180F240020074A2B
:102530008B420AD01D780133684005000009254010
:102540001018555D007C6840F2E730BDCA7200008B
:102550000B780020422B08D8272B07D80130102BEE
:1025600003D0223B58425841C0B270470120283B5B
:10257000DBB29840024B1840431E9841F4E7C04636
:102580000100080409220023C270034AC1600370DD
:10259000426003727047C04601010100002310B57C
:1025A0000400C3614370FFF7EDFF200010BD10B5BC
:1025B0000C0007212000FFF7B5FFE379181A43420A
:1025C0005841C0B210BDF8B50500C0680E00170034
:1025D0000024FFF710FF01223100E868FFF72EFF0B
:1025E000002805D0A74205D00134E4B2A742F2D2B8
:1025F000002005E031002800FFF7D9FF0028F3D0C4
:10260000F8BDF8B50600C0680F0015000024FFF7FC
:102610004FFEA04218D03900F068FFF7D4FE220028
:10262000BE21F068FFF7A1FE2C000935F068FFF726
:10263000B8FE20700134AC42F8D1F068FFF738FEE4
:10264000013844424441E4B22000F8BD70B50400B2
:10265000C0680D00FFF72CFE002D12D1E068FFF7D7
:10266000C4FE0022B421E068FFF77FFEE068FFF7B8
:1026700065FE0500E068FFF71BFE68426841C0B2D6
:1026800070BD2900E068FFF79EFEEAE710B5C0685C
:10269000FFF754FE013843425841C0B210BD10B597
:1026A0004378002B03D00021807802F09BF810BD06
:1026B00010B54378002B03D00121807802F092F806
:1026C00010BD000070B543790400002B13D00378CF
:1026D000002B10D101F06EFE05002000FFF7D6FFA1
:1026E000002818D101F066FE0C4B401B984212D80E
:1026F00001F0B6FEF1E70939C9B202290CD8084B3E
:102700004900CD5E2000FFF7CAFF280001F088FED7
:102710002000FFF7CDFF70BD024DF3E7ED02000092
:10272000EA720000EE02000010B50400C068FFF776
:10273000BFFDE068FFF759FE44212278E068FFF70B
:1027400014FE2379002B03D02000E178FFF7BAFFB5
:1027500010BD10B510785478C000E4020B78044323
:1027600024B2102B0DD1D17900290AD09079E40040
:10277000081AC00102F042FA7F2320389C43041952
:1027800024B2200010BD0000064B10B5984206DBB5
:1027900002F08EFDF021890502F070FC10BD0248A8
:1027A000FCE7C04681E4FFFF0000FEC28A189142A8
:1027B00006D001314B1E1B78002BF8D0002070474B
:1027C0000120FCE770B505001400FFF71AFF002890
:1027D00011D0092221002800FFF7E8FF03000020A4
:1027E000834208D108212000FFF79CFE237A181AA3
:1027F00043425841C0B270BD1FB50A780C23102A5D
:1028000011D001AC2200FFF7DDFF002398420AD06F
:1028100022795F2A0ED009D809331F2A03D000235A
:102820003F2A00D10A33180004B010BD7F2AFAD124
:102830000C23F8E70B23F6E713B50400C068FFF795
:10284000DAFD0023E371237201226946E068FFF795
:10285000F5FD002825D069462000FFF7A8FE0028D6
:10286000F2D0E379694601332000E371FFF770FE8F
:102870000028E9D0237A013323722378002B07D173
:1028800069462000FFF7E2FE002801D001232370F3
:1028900069462000FFF7B0FFE3788342D4D2E070AE
:1028A000D2E713BD30B585B001AA04000D00FFF7D3
:1028B00089FF002806D02900200001AAFFF749FF60
:1028C00005B030BD0048FBE780E4FFFF10B5FFF71F
:1028D000E9FFFFF759FF10BD13B50A006946040070
:1028E000FFF771FE002804D069462000FFF7EEFFD5
:1028F00016BD0148FCE7C0460000FEC210B5024804
:1029000001F01CFC10BDC0465401002013B5114C51
:102910001149200000F05DF91049114800F059F903
:102920001049114800F055F91049114800F051F9CB
:102930001049114800F04DF91049114800F049F9CB
:102940000123032221000092019300220D4801F08F
:102950008BFB13BD5004002000080042000C004215
:1029600054040020001000425804002000140042CB
:102970005C0400200018004260040020001C00429B
:102980006404002054010020F8B505000E00170073
:102990000024BC4208D02B682800315D1B68984792
:1029A000002801D00134F4E72000F8BD70B505001F
:1029B0000C00081E07D004F013FC2B680200210055
:1029C00028005B68984770BD10B5FFF7EFFF10BD9A
:1029D00010B503681B68984710BD000010B5024988
:1029E000FFF7E4FF10BDC046F876000070B50400A4
:1029F000FFF7DCFF05002000FFF7F0FF401970BD76
:102A0000F0B58BB06B4614000022053307000D00B3
:102A1000DA77012C00D80A2409AE2800210002F040
:102A2000E9F80300CAB2080029001D00130037337B
:102A3000DBB2092802D813003033DBB2013E337019
:102A40008C42EAD931003800FFF7B0FF0BB0F0BD7F
:102A5000F7B51C0008AB1B7821000093070023008A
:102A60001000150004F0D8F94A4900281ED10122AF
:102A70006600760828003100474B524204F0CCF93A
:102A8000002809D1012231002800434B524202F0B4
:102A9000C1F94249002809D0E02228002100404B1A
:102AA000120602F0C1F9002806D03E493800FFF7AF
:102AB0007DFF06003000FEBDE022280021003A4BD9
:102AC000120602F09DF90028EFD100220023280011
:102AD000210002F095F9002814D02D213800FFF7CD
:102AE00077FF80231B060190E418002600202F4961
:102AF000009BB34208D000222D4B013602F088FF24
:102B0000F6B2F5E70190F0E72A00230002F016FC88
:102B10000D00040002F0D6F9060004F0D1F90B0014
:102B200002002900200003F0E5FD0A2204000D0048
:102B300038003100FFF764FF019BC618009B002B93
:102B400004D038001B49FFF731FF3618009B013BCA
:102B5000DBB20093FF2BADD0154B002220002900E3
:102B600003F05CFB0D00040002F0ACF90A22010046
:102B700001903800FFF744FF3618019804F0A0F9DF
:102B800002000B002000290003F0B4FD04000D003A
:102B9000DCE7C046FB760000FFFFEF7FFF7600001A
:102BA000FFFFEF4103770000FFFFEFC10000E03FB0
:102BB000000024400777000037B506990400C9B229
:102BC0000091FFF745FF05002000FFF707FF4019C0
:102BD0003EBD016070479446F0B505AC25789C1E5B
:102BE000621E9441624606689207376824063A439B
:102BF00022430724326000682140AD01002442686E
:102C00002943022B00D05C030A4322434260F0BDFB
:102C100030B5C0250368AD031C6812052A40224365
:102C2000C0240904A40221400A431A6003685A68B8
:102C300014435C6030BD0123026811680B431360CC
:102C400003681A68D207FCD4DA69D207F9D470474E
:102C50000223026811680B4313600268D3699B0763
:102C6000FCD4704703681A7ED20702D41A7E9207FA
:102C7000FCD57047002203685A8370470368187EAA
:102C80004007C00F70470368187EC0097047802353
:102C900002685B42117E0B43137670470368588BC2
:102CA0008007C00F704702230268518B0B43538388
:102CB00070470368187EC007C00F70470368188DFF
:102CC000C0B2704703681A7ED207FCD589B20120D2
:102CD00019857047012203689A75704701220368BD
:102CE0001A7570470368104A934213D00F4A9342F3
:102CF00012D00F4A934211D00E4A934210D00E4A7E
:102D000093420FD001200D4A4042934201D1063038
:102D100040B270470020FBE70120F9E70220F7E707
:102D20000320F5E70420F3E700080042000C00420E
:102D3000001000420014004200180042001C004233
:102D4000F8B5FFF7CFFF00282CDB1D4BC00018188B
:102D500005230479C3560320FF221840C000824097
:102D6000C021D2438140002B1DDB1F2501201D40C7
:102D7000C026A840134D7600A851C0269B089B0092
:102D80005B19B6009F593A401143995128603F237F
:102D900023408024E4011C430B4B5C805A7852B2E0
:102DA000002AFBDBF8BD0F200340083B07489B08C7
:102DB0009B001B18D86902401143D961E7E7C04660
:102DC0000C77000000E100E0000C004000ED00E0A6
:102DD000F8B504000F0016001D00FFF7B1FF20003A
:102DE000FFF729FF1C21BB000B4071072268090C6B
:102DF0000B431360842322689375012F1AD110218D
:102E0000012E00D008390C4B69431868C00001F04E
:102E10006BFE0722216802408B895203DB04DB0C26
:102E200013438B81226803049089DB0C400B400321
:102E300018439081F8BDC0467C0000203F207047B9
:102E400013B56B460268D971073354681900012223
:102E5000A04716BD10B50221006900F029FC10BD85
:102E600010B50321006900F039FC10BD10B5130046
:102E7000084A0400D279002A03D1012300206360AC
:102E800010BD0A000069032100F020FD0028F4D0E5
:102E9000F6E7C0460400002010B5054C030020688A
:102EA000421C04D11A68180052699047206010BD76
:102EB00050000020074A0300106810B5411C03D0E1
:102EC00001235B42136010BD0221186900F0F0FC81
:102ED000F9E7C0465000002010B5037842220233C3
:102EE00003700249024800F09DFD10BD0C00002057
:102EF0008404002010B50178030042780020A12945
:102F000008D1212A05D1174917481A3A00F08AFD3D
:102F1000012010BD2129FCD1202A13D111491248CA
:102F2000193A00F01FFC96220E4BD200196891420C
:102F30000ED1DA7901231A420AD1FA2001F0F4FC09
:102F40000020E6E7222A06D19A78064BDA71EAE7F2
:102F500001F0F0FCF4E7232ADBD15A88034B1A6016
:102F6000D7E7C046040000208404002000000020B1
:102F700070470000FA220021054B92009A60054A32
:102F800008321A60044A59601A6119767047C046BF
:102F9000680400203C77000084040020704770B56E
:102FA0000F26CB1D02003240D5B22C000009303470
:102FB000092A00DD07341C705A1E994200D170BDE9
:102FC0001300EFE710B50400806904F033F8A06A3D
:102FD00004F030F8200010BD10B50400FFF7F2FF38
:102FE000200001F067FA200010BD000070B5032931
:102FF00008D1324B8000C058002802D00368DB683B
:10300000984770BD82291FD1C3B22D4D5A01AA180D
:1030100091692C4C80010C40C021890521439161AC
:10302000294908334018802150612A685B01D01873
:1030300004794942214301717020995C8143080061
:10304000302101439954DCE70029DAD1C024C1B210
:103050001B4E4A01B21893681A4DA4052B40234316
:1030600093601A4B8001C0180B005060306807262F
:1030700008335B01195CB1430E000121314319543F
:1030800091690D402C43946170240F495161195C82
:10309000A1430C0010212143195491680C4CC31812
:1030A0000C4080214903214391609168890B890379
:1030B0009160402259790A435A71A2E7880400209E
:1030C0003C090020FFFFFF8FB004002070060020A5
:1030D000FF3F00F0EFF3108303600123436072B6FB
:1030E00070470368002B02D162B6BFF36F8F704741
:1030F00037B5056904006846002D14D1FFF7EAFFD3
:10310000019B621D013B02D3D57FEDB2FAE7684611
:103110000193FFF7E6FF002D01D100203EBD206A9C
:10312000E369C01AFAE7FFF7D5FF22000025019BEB
:103130003432013B02D31578EDB2FAE768460193C9
:10314000FFF7CFFF002DE8D0206BE36AE9E700002E
:10315000F0B5FF2501264268836811682B405B01AA
:10316000CC186419A77AD3183E43A672C6689C6827
:103170000B4FB60436093C4034439C6083682B40B7
:103180005B01D2189468A40BA40394604022836866
:103190002B4008335B01CB1819790A431A71F0BD33
:1031A000FF3F00F0F7B5056904000E001700684600
:1031B000002D43D1FFF78EFF019B601D013B5A1C80
:1031C0000BD0C27F591E002A05D168460193FFF734
:1031D00088FF2800FEBD0B00F1E768460193FFF76A
:1031E00080FFE369AF420AD0226A9A4207D95A1C8B
:1031F000E261A269D3181B7873550135F1E7226AA1
:103200009A42E6D10023E361013368462361FFF768
:1032100061FF22000021019B671D013B3532581CD4
:10322000D3D0F97710785E1E002805D020001170E9
:103230000193FFF78DFFECE73300F0E7FFF74AFF5C
:103240002000019B3430013B5A1C06D00278591EE5
:10325000D5B2002AB9D00B00F6E7684601930025E5
:10326000FFF73FFFE36ABD4202D0226B9A421CD8AF
:10327000226B9A42ADD100236846E3622361FFF7D7
:1032800029FF270022000021019B3437013B353202
:10329000581C9AD0397010785E1E00280DD020007E
:1032A00011700193FFF754FFEBE75A1CE262A26A28
:1032B000D3181B7873550135D4E73300E8E7F7B529
:1032C00082684368D2B211000400083118684901CD
:1032D0004118C879C00729D501255201CD719B1825
:1032E0009A6861699204920C002923D12262226AB1
:1032F000002A41D0A26A656168465A60FFF7EAFE7B
:10330000342294462200019B671D013BA4443532C0
:10331000591C2DD06146FD770978581ECEB2002980
:1033200005D0019368461570FFF7DBFEF7BD03007B
:103330001670EDE72263226B002A1DD000222700C1
:103340006261A26968465A60FFF7C4FE019B621D74
:103350009446013B34373032591C09D061463D70E8
:10336000C97F581ECEB20029DBD103001670F3E7E7
:1033700068460193FFF7B5FE2000FFF7E9FED5E7A9
:1033800013B56A4600230C00D01DD371FFF7A4FDCE
:1033900023681818206001F043FB6B46D91D01F02B
:1033A0000BFB236818186B462060D87916BD000007
:1033B00003290ED180220E4B62311B68FF31585C0D
:1033C000524202435A5468226339FF32FF399954FA
:1033D00070470129FCD18022054B24311B68FF3145
:1033E000585C524202435A5428222339FF32EDE7F7
:1033F0003C09002070B500252F4B0121040020203E
:103400001D7001F0BFF90121202001F0EBF92B4BD9
:1034100001211F201D7001F0B5F901211F2001F0CD
:10342000E1F92023264A0F20D1690B43D361012201
:1034300024490B7813430B70234B1978814319707F
:1034400006211D782943197020490D782A430A70F6
:103450001A7802401A70602219780A431A701C4BBD
:103460001C4A5A805A78D209FCD11B4800F09CFFB4
:103470001A4D280001F0E8FA280001F0FBFA7F213C
:103480002B68C1201A7880000A401A70042219782B
:103490000A430C211A701A898A4311491A810A5861
:1034A0001202120A0A5080220A6019787E3A0A43F0
:1034B0001A700123237070BDA5040020A40400200D
:1034C00000040040584400413C440041594400413C
:1034D000000C004006400000A93E00003C0900200E
:1034E00000E100E00078002810D00121084B1B68A3
:1034F0001A898A431A810822198B0A431A830422E3
:10350000198B0A431A830022024B1A607047C04687
:103510003C090020340900200A000E498B699B0BEE
:103520009B038B610B680221FF33197298798239F2
:1035300001439971197A8907FCD57F20064B024017
:10354000997A8143114380229972997A52420A43AF
:103550009A7270473C0900200050004110B50B7969
:103560000C00002B0CD10800FFF7C4FC002801D090
:10357000012010BD094A93699B0B9B039361F7E7F8
:1035800001F04EFA210001F03BFA0028F0D1034A85
:1035900093699B0B9B039361EBE7C0463C090020BA
:1035A000F7B50D001100832A19D1EBB2324C5A0144
:1035B000A21891693148AD010840C0218905014335
:1035C00091612F4920686D187021083355615B01A6
:1035D0001A5C8A43110040220A431A54F7BD022A9A
:1035E00045D1284AAB009858002802D003685B698F
:1035F0009847382000F05AFF234B802703600023B0
:103600001D4E7F00421D036203614361C36146603A
:103610008560C760D3772F32C362036304001370E1
:103620003800537003F0FCFC0190A061380003F0F7
:10363000F7FCEBB25A01A062B21891680F48083348
:103640000840C021890501439160316807265B016C
:10365000585CAD00B0430600032030435854019B32
:1036600020005360FFF774FD064B5C51B6E728005D
:10367000FFF7BCFCB2E7C0463C090020FFFFFF8F0C
:10368000B0040020880400206877000070B50500B1
:103690000124064BA200D258002A05D021002800A0
:1036A000FFF77EFF0134F4E770BDC04654000020F0
:1036B000084B8A00D05810B5002803D003689B68D7
:1036C000984710BD044BC9B2490159188868800455
:1036D000800CF6E7880400203C09002010B50C009F
:1036E000FFF7E6FF00280CD0064BE4B219688023F0
:1036F000083464010C1962795B421343637102233D
:10370000E37110BD3C09002070B5CBB2124A1348DA
:103710005C0189018918021951609168104D0833C4
:103720000D40802189022943402591609168890BD1
:103730008903916001685A018A1816793543157119
:1037400095796D06FCD55B01C918CB79DB07FCD5F3
:1037500000198068C0B270BD700600203C090020CE
:10376000FF3F00F070B5140040220B4B0D001B68AA
:10377000FF3359790A435A710021FFF7C5FFA04270
:1037800000D9200000230549A34203D0CA5CEA54B3
:103790000133F9E770BDC0463C09002070060020E7
:1037A00010B50C48C9B24901421893689B049B0CA0
:1037B0003F2B0BD99468403B9B04A40B9B0CA403A8
:1037C0002343936041188868C0B210BD93689B0B77
:1037D0009B03F6E73C090020F0B51C002F4B85B099
:1037E0001B6806000D000192002B54D02C4F3B7833
:1037F000D9B2002B02D11F2000F0F4FF64233B70EC
:10380000284BAA00D058002808D0036822005B6823
:10381000019998470400200005B0F0BD2900300050
:10382000FFF746FF844204D929003000FFF740FF2C
:10383000040029003000FFF7B3FF0121EBB21A4F5B
:1038400003935B010293029A3B6801989B18FF3334
:103850005A7A0A435A72154BA9012200C91803F07B
:10386000F3FB002CD7D029003000FFF721FF002800
:10387000D1D14021039B3A6808335B01D3181879F2
:10388000014319710121D971029BD318FF339A7A30
:103890000A439A72BFE701246442BCE7340900205E
:1038A000A4040020880400203C09002070060020A9
:1038B00013B56B46DC1D22000123FFF78DFF0128A5
:1038C00001D1207816BD01204042FBE7F0B51C0075
:1038D0003A4B85B01B680E000192002B3FD080232D
:1038E000DB019C423BD8364D2B78D9B2002B02D15C
:1038F000202000F077FF642300272B70314BB201AA
:10390000D3180293002C2CD02F4B1B680393FF235A
:1039100033401D0000930835039B6D015D19AB79A1
:10392000DB0921D0294B2A49186801F0DDF8294B21
:103930001721584301F0D8F8274BEA79920713D49E
:103940009A5D002A01D10138F7D201229A55009BD5
:103950005A011D4B9B189A69920B92039A61012799
:103960007F42380005B0F0BD00221B4B25009A5560
:10397000402C00D940252A000199029803F064FBED
:10398000009BA9045A01104B890C9B18029A7F19BD
:103990005A619A69641B920B92030A439A61009BD5
:1039A000039A08335B01D3180222DA715979823AFB
:1039B0000A435A71019B5B190193A3E73409002064
:1039C000A5040020B00400203C0900207C00002059
:1039D00040420F0070110100A704002070B50C00D8
:1039E0001D000D4BA601F618110030002A0003F04F
:1039F0002BFBE4B2094A640114196661A369084902
:103A000028000B40A361A169AB04890B9B0C8903BF
:103A10001943A16170BDC046B00400203C090020DC
:103A2000FF3F00F0F7B5104B0F001B78140001901A
:103A3000002B0CD10D4B16001D78002D09D00C4E1B
:103A40000C48358828182D1903F0FEFA358020001F
:103A5000FEBD002EFBD033007A1900210198FFF73C
:103A6000BDFF2D18361AF4E7300800203109002078
:103A70003209002031080020F8B50F00160000249C
:103A8000012A26D9100003F0CBFA0500380003F014
:103A9000A7FB032302220130400028706B7096427E
:103AA0000DD9397800290AD0531CDBB20137A9544B
:103AB0009E4203D00232EC54D2B2F0E73200290029
:103AC0000548FFF7AFFF441EA041C4B2280003F031
:103AD000B1FA2000F8BDC04684040020F0B50025EE
:103AE000012785B0184B0E0069461F700400009531
:103AF000FFF746FC154B01A90B806A3BFF3BCB71DE
:103B00006E3B0B72009B320009334B800E4B8D7164
:103B10004F7108711D70092E0FD00D4E092237709C
:103B20000C4F200000953D80FFF77CFF6946200088
:103B3000FFF726FC3A88084935702000FFF772FF2E
:103B4000012005B0F0BDC046300800200902000089
:103B5000310900203209002031080020F0B5CF786B
:103B600005000E0093B0022F09D1C9882B48FFF73A
:103B7000B5FF441EA041C4B2200013B0F0BD00F058
:103B80004FFF310000F02CFF002803D0C417241A87
:103B9000E40FF1E7012F0BD1F2882149112A11D846
:103BA000D2B2002A0ED02800FFF73CFF0124E3E741
:103BB0000400032FE0D1B378002B05D1F288194916
:103BC000032AEDD90A78EEE7022B06D1F2881649CE
:103BD0002800FFF751FF0400CEE7012B02D1F28845
:103BE0001249F5E7032BC7D1114B01A91868FFF75C
:103BF000D6F9104B03A91868FFF7D1F90E4B05A9A8
:103C00001868FFF7CCF90D4B07A91868FFF7C7F93B
:103C10006B460533DC77F28801A9D9E784040020DC
:103C2000A17700009477000080770000987700006B
:103C30000CA0800040A0800044A0800048A080002C
:103C400037B5050048780C000B2810D800F042FF6B
:103C5000061B0F310F484D7551546E71097801AA3A
:103C6000002906D1022311802800FFF7B7FE0120AA
:103C70003EBD00231380324B1B78012B00D1137003
:103C800002230021F0E78A780023012A09D16A463D
:103C900093802C4B1B78012B00D11371022301AAB6
:103CA000EFE7274A1370284A93699B0B9B039361A4
:103CB000DDE78C78012C07D1224B01AA1C70234B25
:103CC0001B7813702300DCE700208442D0D11C4B0A
:103CD00001301D4A187093699B0B9B039361C7E7E2
:103CE00028008978FFF718FCC1E72800FFF736FFA6
:103CF000BEE70123164AC4E70B780020DB06B7D1E4
:103D00002800FFF7C3FC2A200221A278104BFF30C5
:103D10001A600D4A13681C5C21434A241954FF346D
:103D2000195D2938FF3801431955D4E70123094AA1
:103D3000A7E78A78074B1A60B5E7002098E7C046E6
:103D4000A6040020AE0400203C090020FA76000002
:103D500034090020380900204B4BF7B51C780700C8
:103D6000002C00D083E0494E33689B8B1B070ED597
:103D700021002000FFF73AF9326810231100FF31CB
:103D8000887A03438B72424B1C6008239383336809
:103D90009A8B52071FD504229A833E4A1378002B30
:103DA0000AD01378013BDBB213701378002B03D1D8
:103DB0000121202000F016FD374A1378002B0AD08D
:103DC0001378013BDBB213701378002B03D1012170
:103DD0001F2000F007FD3368FF331A7AD2061ED584
:103DE00010221A72597930320A435A7160232B49D2
:103DF00038000A781A423BD1FFF722FF3368FF33BD
:103E0000002838D08022997952420A439A711A7A4E
:103E1000520604D540221A72597A0A435A723368FC
:103E200000241D8C01239D43EDB20193E1B2002DCE
:103E30001DD02B002341019A134215D02300326874
:103E400008335B01D318DA79D20702D4DB799B07F8
:103E500007D5134BA200D058002810D003681B6868
:103E60009847019BA3409D430134092CDED1F7BD47
:103E7000FFF774FBC2E720210A4A9171C7E73800B7
:103E8000FFF796FAEDE7C046310900203C09002013
:103E900034090020A5040020A4040020700600209E
:103EA00088040020FF50004110B50248FFF754FF7E
:103EB00010BDC04684040020014B024A1A607047BE
:103EC0003C090020005000410120704710B50368F4
:103ED000014A1B6A984710BD130400000300FC331D
:103EE000D96F9A6F914203D0DB6FC018007D704785
:103EF00001204042FBE710B504000069FEF79BFE7D
:103F000022000023FC329367D3679E229200A418FC
:103F10006366A36610BDF0231B01194080230620B1
:103F20009B0099420AD00133FF330130994205D0FA
:103F3000802300205B00994200D1053070470F209C
:103F400001400020012903D00239481E8141481C4C
:103F500070470000B923F0B5182785B002919B0087
:103F60000400C05C3B0008214343324E1500F318A7
:103F7000595600F07BFC304B0821E05C3B0043438A
:103F8000F318595600F072FC2C4BE25C0393022AA2
:103F900009D11133E05CFF2805D008214743F71908
:103FA000795600F063FCBA27BF00E05DFF2819D006
:103FB000012100F0E7FB1822E35D21495A43B35683
:103FC000B618DB015818BB21890060501D49012239
:103FD0005B18BC218900635071688A40BD2189004B
:103FE00062501A600122029B11002069FEF7F0FE68
:103FF00029002000FFF78FFF290006002000FFF7AF
:104000009EFFF0221540303D6A42554103003100C9
:10401000206901220095FEF7DEFD0B4B2069E25C72
:10402000039BE15CFEF7F4FD2069FEF711FE05B08D
:10403000F0BDC046F0720000E5020000E70200009B
:104040001844004114440041E6020000AF2210B5BC
:1040500004000021520003F000F823000022FC338A
:1040600020005A669A6610BDF7B51D0008AB1B7894
:104070000400009309AB1B781600019300234360F2
:10408000FA239B008360104B0F0008330360143049
:10409000FFF7DCFF20007D30FF30FFF7D7FFB923AB
:1040A0009B002761E654094B009AE554084B200019
:1040B000E254019A074BE254BA22E93BFF3B9200DB
:1040C000A3541032A354FEBDB4770000E5020000F3
:1040D000E6020000E70200000300FC33586E9B6E0E
:1040E000C01A01D55F30FF30704710B504002000C2
:1040F0007D30FF30FFF7F0FF0028F8D12069FEF790
:10410000B1FD10BD10B51430FFF7E6FF10BD030080
:10411000FC33596E9A6E914205DB5A6E986E801A86
:104120005E30FF307047986E5B6EC01A0138F9E759
:1041300010B57D30FF30FFF7EAFF10BD70B5040009
:104140000069FEF7ABFD002805D02069FEF7B6FD3B
:104150002069FEF7A8FD2069FEF790FD002824D015
:1041600025002069FEF7AAFDAF21FC350600A86FE7
:104170004900013000F03EFDEB6F994203D0AB6F78
:10418000E3181E75A967BA239B00E35CFF2B0CD0D4
:1041900020001430FFF7BBFF092806DCBB23BD223B
:1041A0009B009200E358A2581A602069FEF781FD37
:1041B00000281DD020007D30FF30FFF78DFF002844
:1041C00025D09E239B00E618B26E736E9A421BD0D8
:1041D000BE22AF21B36EB06EE31852000130490029
:1041E0009D5C00F007FDB1662069E9B2FEF76AFD4B
:1041F0002069FEF748FD002805D02069FEF747FD3D
:104200002069FEF737FD70BD01256D42ECE720699E
:10421000FEF764FDECE70000F7B5040000690E004E
:10422000FEF747FD002847D1AF277F009E239B0064
:10423000E518686EAB6E39000130019300F0DAFCCE
:10424000019B994224D1EFF31083DB070ED4204B5E
:104250005B68DB05DA0D002BE8D0103A53B212068A
:104260000DD49B081B4AC0339B009B582069FEF766
:1042700020FD0028DAD02000FFF760FFD6E70F22EC
:104280001340083B144A9B089B009B181B68EDE7F2
:10429000AF21686E4900013000F0ACFCAB6E994272
:1042A00005D0BE226B6E5200E3189E5469662069E9
:1042B000FEF710FD0120FEBD20007D30FF30FFF72E
:1042C0000BFF0028B0D131002069FEF7FBFCF1E7BD
:1042D00000ED00E000E100E01CED00E070B505003D
:1042E000FC35EA6FAB6F04009A421DD0AF21EB6F33
:1042F0004900C318E86F1E7D013000F07BFCE967C0
:10430000BA239B00E35CFF2B0CD020001430FFF796
:10431000FEFE0A2806DDBC23BD229B009200E35866
:10432000A2581A60300070BD01267642E8E7FEE729
:10433000034B10B51B68002B00D0984710BDC0463A
:10434000400A00200F4A1048110010B50F4B82425E
:1043500002D0934209D11300824209D100F0AEF895
:1043600000F082F8FEE710CB10C18142FBD3F3E7E7
:10437000074A8B42F2D00021064B9A42EED202C28B
:10438000FBE7C0460000002000010020AC780000E0
:1043900000010020700A002010B500F062F800282B
:1043A00001D100F053F810BD014B18607047C046B2
:1043B000400A0020014B18687047C046440A00209C
:1043C000F7B51348012284461249134C8E6863687E
:1043D00005689B0E1340019288686268019F920EE7
:1043E0003A4067463F6893420ED1BD420CD18642A7
:1043F0000AD35B19FA254868AD00861B07486B4352
:104400007043000DC018FEBD3D0013000600E3E739
:10441000440A002010E000E000ED00E055550000E7
:1044200070B5041E11D0FFF7CBFFFA260500B600C9
:1044300000F016F8FFF7C4FF401BB042F8D3FA2390
:10444000013C9B00ED18002CF4D170BD10B5034A5F
:1044500013680133136000F075FA10BD440A0020A0
:10446000704700207047704710B500F0D7F802F091
:10447000B3FDFFF7F8FF0120FFF7D2FF094C200042
:10448000FEF7B8FF2000FFF72DF8FDF737FEFDF728
:1044900043FEFFF7E5FF044B002BF8D000E000BF20
:1044A000F5E7C046840400200000000010B502F0CB
:1044B000B7FD10BD10B502F0BDFD10BD1E2270B5D8
:1044C00046484749436893431C3A134343600823D3
:1044D0008C6923438B61434C434B9C829C8A1443DD
:1044E0009C82DC681442FCD00124404A1470157888
:1044F000254203D055786DB2002DF8DB012494607D
:10450000547864B2002CFBDB394C5460547864B2AC
:10451000002CFBDB8224E4015480547864B2002C2C
:10452000FBDB02249C840E34DD682542FCD0314C38
:10453000DC621024DD682542FCD09D8C2E4C2C437F
:104540009C841024DD682542FCD002249D8C8026AA
:104550002C439C844024DD683542FCD0DD68254234
:10456000F9D01024DD682542FCD0002494605478F2
:1045700064B2002CFBDB214C5460547864B2002CF4
:10458000FBDB1C6A1E4D2C4080251C621C6AAC4360
:104590001C62032393601B4B536053785BB2002B68
:1045A000FBDB0023FF240B72174A4B728B72CB721A
:1045B000164B1A60164B174A1B6811689A065B0166
:1045C000C90E2340520F12020B431343124A1385A4
:1045D000802342681343436070BDC04600400041E1
:1045E000000400400C06000000080040000C0040E1
:1045F00001050100B905FF7D040A00000007030062
:10460000FFFCFFFF03060100006CDC027C000020C1
:10461000246080002060800000400042FA212E4B80
:1046200010B51868890000F05FFA802301385B0438
:1046300098424FD229492A4A4860C020136A00068E
:104640001B021B0A0343136200238B6007330B60BA
:104650008021136A09061B021B0A0B431362FC220A
:10466000204B196A0A431A62FF22196A12020A438E
:104670001A62A022196AD2020A431A621A4B1C005B
:104680005A7852B2002AFBDB184A5A80184B1A009B
:10469000597EC9090129FBD0C821890099800521CB
:1046A000D970537EDB09012BFBD0C02300205B01B6
:1046B0001361907000F022F863785BB2002BFBDB93
:1046C0000C4B0D4A6380D379DB09012BFBD04123CE
:1046D000537010BDFEE7C0467C00002010E000E0F3
:1046E00000ED00E000040040000C00401E4000000F
:1046F0000040004221400000004800421F4900B530
:104700000B004A7ED209012AFBD001380A282FD893
:1047100000F0E0F91B2E2E2E2E2E062E2E24110038
:104720001A6917490A400F211A615A788A43110001
:1047300001220A4310E01A6911490A400F211A6147
:104740005A788A4311000322F3E71A690C490A4098
:104750000F211A615A788A435A7000BD1A690849B4
:104760000A400F211A615A788A4311000222E0E7B9
:10477000F022196912050A43F3E7C04600400042DF
:10478000FFFFFFF0182310B508245843134A1318ED
:104790001C57013412D001245B6882569C400329C7
:1047A0000CD808000E49D2015218D318403300F03B
:1047B00091F90210060B02211970546010BD0621F8
:1047C000197054609461F9E70621197054605461BE
:1047D000F4E7422119709460F0E7C046F0720000DF
:1047E000004400411823F0B508245843114A131817
:1047F0001C5701341BD0012635005F688356BD402D
:104800000D4ADB019A18906805420BD10C00601E1E
:104810008441D2194032107834400336A400B043AA
:1048200020431070044A9B18002901D15D61F0BD3E
:104830009D61FCE7F072000000440041182310B5B0
:104840000824434307490020CA181457013408D0EC
:104850005B560549DB015B18186A5368D840012391
:10486000184010BDF072000000440041182370B5DC
:10487000082643432A4AD518AE573400013607D0DC
:10488000072907DC00291DDA01314C424C41644202
:10489000200070BD0B00083BDBB20024032BF7D8CF
:1048A000092903D12100FFF76DFFF1E70A2904D19F
:1048B0000839FFF767FF0024EAE700240B29E7D156
:1048C0000A39F0E76C68012520009B56C9B26208DE
:1048D0002840DB012C4211D012480E351B189A18C3
:1048E00030321078090128400143C9B211704122C9
:1048F0001B19403319780A431A70DCE70F26094D5B
:104900005B199A18303215781B19B5432943117079
:1049100041224033197804000A431A70B8E7C046B0
:10492000F072000000440041014B18607047C0461F
:10493000800000200122024B52421A607047C0469C
:1049400080000020164A10B51368591C27D0013B7F
:104950001360002B23D172B68122124B92000433D4
:10496000934213D3104A01211000147D0C42FCD055
:104970002021148BFF319B085B0021431183D361FD
:104980000A4B13800123027D1A42FCD0BFF34F8FE4
:10499000074B084ADA60BFF34F8FC046FDE710BDF2
:1049A00080000020002000000040004102A5FFFF21
:1049B00000ED00E00400FA0570B50E000025446823
:1049C000002C0BD02368310020005B68984700283A
:1049D00002DBE4682D18F3E701256D42280070BD65
:1049E00070B50D004468002C08D023682900200011
:1049F0009B689847002802D1E468F4E7200070BD66
:104A000070B50D004468002C08D0236829002000F0
:104A10001B689847002802D1E468F4E7200070BDC5
:104A2000064A0123116810B50C0005481C401942C4
:104A300003D1044944600180136010BD480A00207E
:104A40004C0A00200204000070B50400012320CCB1
:104A500000212A782000134380222B70520002F09C
:104A6000FCFAAB78DB07FCD4AB789B07F9D46C621B
:104A700070BD00001F22144B70B51B68590B9C0CB5
:104A80009B0111405B0F22401F2900D11A391F2AB8
:104A900000D1023A072B00D1043B1F2500688E018C
:104AA000048D0A492A40214031430185018D1400BB
:104AB0000A00AA4322430285028D1903044B1340C6
:104AC0000B43038570BDC046246080003FF8FFFFA4
:104AD000FF8FFFFF02B4714649084900095C490095
:104AE0008E4402BC7047C046002243088B4274D3F8
:104AF00003098B425FD3030A8B4244D3030B8B42DF
:104B000028D3030C8B420DD3FF22090212BA030CE7
:104B10008B4202D31212090265D0030B8B4219D3C8
:104B200000E0090AC30B8B4201D3CB03C01A5241E8
:104B3000830B8B4201D38B03C01A5241430B8B4230
:104B400001D34B03C01A5241030B8B4201D30B0319
:104B5000C01A5241C30A8B4201D3CB02C01A524140
:104B6000830A8B4201D38B02C01A5241430A8B4203
:104B700001D34B02C01A5241030A8B4201D30B02EC
:104B8000C01A5241CDD2C3098B4201D3CB01C01A06
:104B9000524183098B4201D38B01C01A5241430910
:104BA0008B4201D34B01C01A524103098B4201D3FE
:104BB0000B01C01A5241C3088B4201D3CB00C01A6B
:104BC000524183088B4201D38B00C01A52414308E3
:104BD0008B4201D34B00C01A5241411A00D2014608
:104BE000524110467047FFE701B5002000F0F0F891
:104BF00002BDC0460029F7D076E7704703460B4355
:104C00007FD4002243088B4274D303098B425FD3C5
:104C1000030A8B4244D3030B8B4228D3030C8B42F1
:104C20000DD3FF22090212BA030C8B4202D31212D7
:104C3000090265D0030B8B4219D300E0090AC30BAC
:104C40008B4201D3CB03C01A5241830B8B4201D359
:104C50008B03C01A5241430B8B4201D34B03C01A42
:104C60005241030B8B4201D30B03C01A5241C30ABA
:104C70008B4201D3CB02C01A5241830A8B4201D32B
:104C80008B02C01A5241430A8B4201D34B02C01A15
:104C90005241030A8B4201D30B02C01A5241CDD2BA
:104CA000C3098B4201D3CB01C01A524183098B4205
:104CB00001D38B01C01A524143098B4201D34B01EE
:104CC000C01A524103098B4201D30B01C01A524151
:104CD000C3088B4201D3CB00C01A524183088B42D8
:104CE00001D38B00C01A524143088B4201D34B00C1
:104CF000C01A5241411A00D2014652411046704733
:104D00005DE0CA0F00D04942031000D34042534037
:104D100000229C4603098B422DD3030A8B4212D3F7
:104D2000FC22890112BA030A8B420CD38901921129
:104D30008B4208D3890192118B4204D389013AD066
:104D4000921100E08909C3098B4201D3CB01C01A3B
:104D5000524183098B4201D38B01C01A524143094E
:104D60008B4201D34B01C01A524103098B4201D33C
:104D70000B01C01A5241C3088B4201D3CB00C01AA9
:104D8000524183088B4201D38B00C01A5241D9D2C1
:104D900043088B4201D34B00C01A5241411A00D242
:104DA0000146634652415B10104601D34042002B3E
:104DB00000D54942704763465B1000D3404201B5BD
:104DC000002000F005F802BD0029F8D016E7704772
:104DD0007047C0468446101C62468C46191C6346C8
:104DE00000E0C0461FB501F0A9F9002801D4002158
:104DF000C8421FBD10B501F0F3F84042013010BDAC
:104E000010B501F09BF9002801DB002010BD012046
:104E100010BDC04610B501F091F9002801DD002059
:104E200010BD012010BDC04610B501F015F90028D5
:104E300001DC002010BD012010BDC04610B501F0FE
:104E40000BF9002801DA002010BD012010BDC0467A
:104E50008446081C6146FFE71FB500F0C5F800282E
:104E600001D40021C8421FBD10B500F049F84042EE
:104E7000013010BD10B500F0B7F8002801DB0020AC
:104E800010BD012010BDC04610B500F0ADF80028DF
:104E900001DD002010BD012010BDC04610B500F09E
:104EA00057F8002801DC002010BD012010BDC046CD
:104EB00010B500F04DF8002801DA002010BD0120E7
:104EC00010BDC04670B500220C4B04000D00FFF76A
:104ED000B5FF002804D12000290001F0BBFF70BD00
:104EE000064B00222000290001F004FC01F0B2FF73
:104EF00080231B069C466044F1E7C0460000E04169
:104F000070B542004E024C0045026D0A120EC30FEE
:104F1000760A240EC90FFF2A0FD0FF2C11D00120D2
:104F2000A24200D070BDB542FCD18B420DD0002A08
:104F3000F8D12800451EA841F4E70120002DF1D149
:104F4000EBE70120002EEDD1E9E70020EAE7C046BB
:104F5000F0B5420046024D024C00C30F760A120E15
:104F60006D0A240EC80FFF2A1FD0FF2C10D0002A74
:104F70001FD171427141002C01D1002D1ED000299A
:104F80000ED183421ED00221581E08400138F0BDC8
:104F9000002D26D1002AF4D1714271410029F0D0B0
:104FA0000028F4D101204042F1E7002E19D1FF2C56
:104FB000EED0002CE5D1002DE3D1E4E70020002E57
:104FC000E5D0E0E7A24205DCEADBAE4202D8E7D357
:104FD0000020DCE7414241414842022108400138BB
:104FE000D5E702204042D2E7F0B5420046024D022A
:104FF0004C00C30F760A120E6D0A240EC80FFF2A4A
:105000000DD0FF2C0FD0002A23D171427141002C0A
:105010000FD1002D0DD10020002E14D00DE0002E58
:1050200010D1FF2C15D1002D0CD1002A03D17142D3
:105030007141002908D1834210D00221581E084036
:10504000013800E00220F0BD0028FCD101204042E0
:10505000F9E7002CEFD1002DEDD1EEE7A24205DCFF
:10506000F2DBAE4202D8EFD30020ECE741424141EF
:105070004842022108400138E5E7C046F8B55746E6
:105080004E464546DE464402E0B545000F1C640A24
:105090002D0EC60F002D47D0FF2D4DD000238020B0
:1050A0009A469B46E400C00404437F3D7802430ACD
:1050B00099467A00FB0F9846120E4B4644D0FF2AC1
:1050C00011D0D8008023DB040343994600207F3AA7
:1050D000AD18474653467740691C0F2B3FD8724A9C
:1050E0009B00D3589F46FF35002B00D079E05246F5
:1050F00002231A4392460220EBE747464C4683467A
:105100005B46022B28D0032B00D1C6E0012B4FD1E8
:1051100000200024C005FF07204338433CBC9046D4
:105120009946A246AB46F8BD002C71D104239A469D
:10513000033B00259B46B9E7002C63D108239A4620
:10514000063BFF259B46B1E7002B50D15246013369
:105150001A4392460120BCE7FF200024DAE74846C4
:10516000260C2404220C0404240C4B4620001B0CA7
:10517000504374435A435E431219030C9B189C42DC
:1051800003D9802252029446664400041A04000C9B
:1051900012189401601E84411B0C920E9B1914433B
:1051A0009B011C431B0172D50120630804401C4372
:1051B00008007F3000283CDD630704D00F23234024
:1051C000042B00D00434230103D580310800374B71
:1051D0001C40FE28C0DCA401640AC0B29AE7370074
:1051E0008EE7524603231A439246032071E748464E
:1051F00001F0D4FE4A46431F9A402D1A91460020E2
:10520000763D66E70C239A46093BFF259B464DE712
:10521000200001F0C3FE7625431F9C4000236D4211
:105220009A469B462D1A41E780240027FF20E4037D
:1052300070E701231B1A1B2B00DD69E79E3120005C
:105240008C40D840631E9C410443630704D00F2365
:105250002340042B00D0043463011AD5012000241C
:1052600058E78020C003044209D04B46034206D1D0
:105270004C46044364024746FF20640A4AE7802004
:10528000C003044364023700FF20640A42E7290098
:105290008EE7A4010020640A3CE78020C003044399
:1052A0006402FF20640A35E7E8770000FFFFFFF79C
:1052B00070B5002813D0C317C5185D40C40F28006F
:1052C00001F06CFE9E2301001B1A962B0FDC0828B0
:1052D00001DD08398D406D026D0AD8B202E000246C
:1052E00000200025C0052843E407204370BD992B0A
:1052F0000BDD05222E00121AD64002001B3295400B
:105300002800451EA84135000543052901DD4A1F37
:1053100095402A00084E3240680709D00F202840E7
:10532000042805D00432500102D59F2332405B1A75
:105330009201550AD8B2D5E7FFFFFFFBF0B54F4603
:10534000D64646460D0001001800C0B517002B03D5
:105350005A0A4B0F1343CA00914602036E004100E4
:10536000520AEC0F7D0F1543760D490DC00F824692
:10537000AC46FF00721A844200D198E0002A00DC9B
:1053800081E0002900D1B6E0C9498E4200D172E126
:1053900080212800090408438446382A00DD5EE1A4
:1053A0001F2A00DDEEE1202039006546801A874083
:1053B000D14085400D4339004F1EB9416746D74063
:1053C0002943DB1B4A46551AA945894149425B1AC4
:1053D000984643461B0200D4CCE043465B025B0A7E
:1053E00098464346002B00D12CE1404601F0D6FD03
:1053F00001000839202228004346521A8B40D04031
:105400008D4003438E4200DD17E18E1B721C1F2A64
:1054100000DDA7E1202118002E00891A8D40884068
:10542000D640D340691E8D4130439846002605433F
:105430006B0709D00F232B40042B05D02B1DAB424B
:10544000AD416D42A8441D0043461B0200D494E0C8
:10545000974B721C9A4200D19DE04146954BED0856
:1054600019400B00520549075B0229431B0B520DE3
:1054700012051343E4072343080019001CBC90469F
:105480009946A246F0BD002A43D08A1B002E00D0C8
:105490002AE14C461C4300D1D1E1541E012A00D11F
:1054A0001FE2834DAA4200D172E2220023E1002ACA
:1054B00000DC98E0002942D07D498E4200D1DAE03C
:1054C00080212800090408438446382A00DD29E1A8
:1054D0001F2A00DC87E1110065462039CD40202AD3
:1054E00004D040206146821A91400F4339004F1E7C
:1054F000B9410D431BE12900394300D1B5E0511EEC
:10550000012A00D1ABE16A48824200D1B2E10A002F
:1055100043E76949751C0D4200D0CFE0002E00D052
:1055200093E14946194300D1D1E16146394300D0A6
:10553000E3E149465807C9080143DB0826E0290092
:10554000394300D191E0511E012A05D058488242CA
:1055500000D18FE10A00B8E73D004D444D45894137
:105560006344984649428844434602261B0200D5BC
:10557000EBE0013E6B0700D05CE74346E9085A07C1
:1055800011433200DB084A48824221D01B035205F6
:105590001B0B520D6CE70023002169E72A003A43F8
:1055A00069D04A465807D108DA0880231B0308430C
:1055B0001A4207D02900ED081D4203D12A00FF0836
:1055C00048073843430FC1005B07C908194313005C
:1055D0000A001A4300D113E28022120313431B0373
:1055E000334A1B0B44E7002A4BD08A1B002E00D104
:1055F000E7E02F48814200D195E180200004034379
:10560000382A00DD43E11F2A00DDDBE120201D00F8
:105610004E46801A8540D64035434E46864030007F
:10562000D340461EB0419C440543ED19BD429B4109
:105630005B42634498460E007FE01E4A761A134090
:105640009846F5E6280001F0A9FC010018311F2951
:1056500000DCCFE62B00083883400025D2E6624606
:105660003A4311004F1EB941ACE649465807C908F4
:105670000143DB0887E749465A07C9081143DB089D
:10568000A6E70D49701C084200D0BBE0002E00D0F8
:1056900014E14946194300D175E12900394300D08E
:1056A0007EE149465807C9080143DB086EE7C0465A
:1056B000FF070000FFFF7FFFFE0700004946CD1BEC
:1056C0006146581AA9458941494288460100404629
:1056D000091A8846090200D5A6E04146294300D0B0
:1056E0007FE60023002451E7C74CA14200D1C7E068
:1056F000802424042343382A54DC1F2A00DDCCE014
:1057000020244846A41A1D004E46A040D640A5407D
:105710000400D34062463543661EB441D31A9C460A
:10572000254344E062463A4315006F1EBD414D4497
:105730004D45894149428846984443461B0200D45E
:1057400018E7B14B01369E4249D04246AF4B01218A
:105750001A4013006A080D401543D9075B089846A4
:105760000D4365E618001F3EF040202A03D040217B
:105770008A1A93401D43691E8D41002300269846D6
:105780000543F7E6110065462039CD40202A04D0B4
:1057900040206146821A91400F4339004F1EB941A3
:1057A00029430FE64A4613431D006B1E9D417D1B96
:1057B000AF429B4162465B42D31A984654460E0064
:1057C00007E64846184300D1B3E0501E012A00D135
:1057D0000DE18D4DAA4200D1A5E0020010E7320094
:1057E0000023002144E620213800891A65468F40B5
:1057F0008D40D040791E8F4105433D436746D740D9
:10580000DB1994E7804A904200D1ECE0390049442A
:1058100049459241634452429B18DD0749085B08A1
:10582000984606000D43A5E64A46BD1AAF42894197
:1058300062464942D31A5B1A98465446D1E56C0732
:10584000F9082143EB0804009DE64A461A4375D146
:105850006146394314D1802300241B03BCE64A4629
:10586000D51BA9458941624649429B1A5B1A984655
:105870000126AEE54A46D1085A071143DB08A7E6E0
:105880006346F9085A0754461143DB08A0E64A4626
:1058900013431D006B1E9D41C7E614001E00203CF3
:1058A000E640202A05D04024A21A93404A461A43D3
:1058B00091464D466B1E9D41354378E74A461A4353
:1058C00000D06BE66B07F9081943EB0880E66146E8
:1058D000394354D06346F9085C072143DB080400D0
:1058E00054E64A46BD1AAF42894162464942D31A3C
:1058F0005B1A9846040001266BE54A46D51BA9456C
:105900008941624649429A1A521A9046120232D589
:105910004A46BD1AAF42894162464942D31A5B1AD0
:105920009846040084E56346F9085A071143DB08EA
:105930004EE6F90868070143EB0824E662463A435D
:1059400000D198E64A46D1085A071143DA08802365
:105950001B031A4208D06046C5081D4204D15446B4
:105960002A00F908430719434B0FC9005B07C90810
:10597000194313002CE64146294300D0FAE50023E1
:105980000A00002402E66B07F9081943EB08FDE55D
:105990006346F9085B07194363460400DB0817E612
:1059A0003D004D4463444D458941984649428844F1
:1059B00043461B0200D4DDE54246144B01261A4043
:1059C0009046D7E510001E002038C640202A05D09A
:1059D0004020821A93404A461A4391464D466B1E18
:1059E0009D41354321E602000023002140E54A465F
:1059F000D519BD4289416344984649428844B3E57C
:105A00000021014A0B0033E5FF070000FFFF7FFF85
:105A1000F0B557464E464546DE46E0B581460500A0
:105A20000C03480092461F0085B0240B400DCE0F9A
:105A3000002859D0874B984200D198E06B0FE400C2
:105A40001C4380231B0423439846834BED009B4655
:105A500000239946834400933C037B005046240B6B
:105A60005B0DFF0F002B67D07A4A934218D07A491A
:105A7000420F8C46E40059461443802263441204CA
:105A8000CB1A14439B46C200002033007B409A4649
:105A90004B460F2B00D9EFE070499B00CB589F4637
:105AA0006F4B52469C462243E344002A00D095E0C7
:105AB000494602231943894600240220E5E70023D2
:105AC0000024002552461B052343D2071343280018
:105AD000190005B03CBC90469946A246AB46F0BDC5
:105AE000002400255B4BEDE74B462343984600D14D
:105AF00089E0002C00D1E0E1200001F04FFA010024
:105B000002000B391D235B1A49461000D9400838A2
:105B100084400B004D4623439846854051483C0342
:105B2000831A9B460023994600937B005046240B22
:105B30005B0DFF0F002B97D15246224355D0002C0E
:105B400000D1CAE1200001F029FA02000B3A1D231E
:105B500001009B1A52460839DA408C4014435246E1
:105B60008A40414B58449B46834400208DE74B4676
:105B70002343984640D108239946063B0025834697
:105B8000009369E7B246009B022BA9D0032B00D1FA
:105B900011E2012B93D0354A5A44002A00DC3CE143
:105BA0006B0700D0A7E1ED084346DB0106D542466E
:105BB0002F4B1A4090468022D2005A442D4B9A42D5
:105BC0008EDC4346520558075C020543240B530DF7
:105BD00078E7BA46A04615000090D4E74A4603236A
:105BE0001A439146032052464FE749460123194381
:105BF00089460024012048E70C239946093BA0462A
:105C00008346009328E70423994600239B460133EB
:105C10000025009320E7002380249A4600250D4BA1
:105C200024034FE7802341461B03194208D01C423E
:105C300006D11C432403BA461500064B240B41E74A
:105C40008024434624031C432403B246014B240B07
:105C500038E7C046FF07000001FCFFFF287800007E
:105C600001F8FFFF0DFCFFFFF3030000FF0300003E
:105C7000FFFFFFFEFE070000444500D216E100D101
:105C800011E101235B429C462E0040460025E3447F
:105C90002302140E1C431B0C994623041F0C1202F2
:105CA000494600920197FEF7A5FF02007A430B04D4
:105CB000310C804619438A420BD901235B429C4632
:105CC0000919E0448C4204D88A4202D9831E9846BE
:105CD0000919881A4946FEF78DFF09048C463104DC
:105CE0006646019A090C4243030031438A4204D9B3
:105CF0000919013B8C4200D811E1891A4246009EE5
:105D000012041A43330C1F00100C90460293130424
:105D10003204160C32001B0C5A4303967B43464355
:105D20007843170CBC469B1963449E4203D98026D6
:105D30007602B44660441E0C301816041B04360C60
:105D40009E19814200D29CE000D197E0AE1B091A57
:105D5000B54280414042081A844200D111E14946CF
:105D6000FEF748FF019A0B044243310C050019432A
:105D70008A4207D90919013D8C4203D88A4201D9C8
:105D8000851E0919881A4946FEF734FF09048C4616
:105D900031046646019A090C4243030031438A42AA
:105DA00007D90919013B8C4203D88A4201D9831EC5
:105DB0000919039E891A32002D041D43029F2B04EA
:105DC0001B0C5A437B439C46280C4643130CB4449B
:105DD000634478439E4203D980267602B4466044E9
:105DE0001E0C12041B04120C30189B18814206D39F
:105DF00002D001231D43CEE6002B00D1CBE6611873
:105E00006E1EA14200D2A4E0814200D2C9E000D1BE
:105E1000D9E03500EDE701256D420121891A3829C5
:105E200000DD4CE61F2900DC7FE01F235B429A1A4D
:105E30004346D340202904D04446654A5A449440FE
:105E400025436A1E954107222B43150000241D405F
:105E50001A4200D1A1E00F2200241A40042A00D1E6
:105E600098E01A1D9A429B415B42E41813002202FB
:105E700000D48FE001230024002523E6B54200D39F
:105E800064E743465A1E009B9C4665441F009D42A2
:105E90009B415B421B19C9188C423AD2884263D895
:105EA00060D0904652E7AA4200D9EAE64346DE07B0
:105EB00058086B081E43ED07EAE6484601F06EF805
:105EC00001000200153120321C2900DC1AE64B4685
:105ED000083883400025984620E601F05FF803006B
:105EE0001A00153220301C2A00DC30E65446083BEC
:105EF00000229C4035E60F232B40042B00D152E6B4
:105F000005235B42AB429B4104355B42ED0898445C
:105F10004AE68C42C5D1AF42C0D9904616E78A42C4
:105F200000D8EAE6831E0919E7E62A4A28005A44FF
:105F3000434695409340C8406A1E954144460343FA
:105F40002B43CC405A0792D00F221A40042A88D102
:105F50008DE73500814200D04BE7009A934200D094
:105F600047E718E6AE429CD902235B429C46009B61
:105F7000E0449C4665449D429B415B421B19C91805
:105F8000E4E6154A5A44002A00DC44E701230025D0
:105F9000984409E665076402240BDB081D430023CF
:105FA00090E5009E023D7200B242BF417F423C1923
:105FB00009190092CEE78024434624031C4324039E
:105FC000064B240B7EE5009A9A42EAD33500C4E7DB
:105FD0003E0400001E040000FF030000FF07000055
:105FE000F0B54F464646D646944691461A03120BE4
:105FF000184DC0B54C000F0392465A00060080466B
:106000003F0B0120640DC90F520DDB0FAC420AD0CB
:10601000AA4203D0944201D157450DD01CBC9046F2
:106020009946A246F0BD3D003543F7D1A242F5D1D5
:10603000524665462A43F1D10120C845EED1994226
:1060400006D0002CEAD13E433000461EB041E5E7C1
:106050000020E3E7FF070000F0B54E4645465746EF
:10606000DE4604001800E0B516001B031B0B324D82
:106070000F034A0099464300A446B0463F0B520D19
:10608000C90F5B0DC00FAA4229D0AB4218D0002A1D
:106090002AD13C43A34665426541002B02D14C46C0
:1060A000264327D0002D15D1814228D00220013966
:1060B000084001383CBC90469946A246AB46F0BD2C
:1060C0004D462E432FD1002AEED13C436542654117
:1060D000002DE9D00028EDD101204042EAE73D0043
:1060E000254320D19342EBD0002BDDD14C462643F3
:1060F000DAD1DBE75B460020002BDBD0D6E79A4203
:106100000ADCE7DB4F45D1D810D000204F45D1D273
:106110000029E1D00800CDE7434258410223404224
:1061200018400138C6E702204042C3E7C445BDD845
:106130000020C445BED2EBE7FF070000F0B54E4695
:1061400045465746DE4604001800E0B516001B031E
:106150001B0B314D0F034A0099464300A446B0463D
:106160003F0B520DC90F5B0DC00FAA4211D0AB42BD
:1061700014D0002A2FD13C43A34665426541002B31
:1061800014D14C46264311D15B460020002B17D07A
:1061900010E03D00254312D193421CD14D462E43C1
:1061A0000DD1002A04D13C4365426541002D0DD13B
:1061B000814216D0022001390840013800E0022057
:1061C0003CBC90469946A246AB46F0BD0028F7D1AC
:1061D00001204042F4E7002BEAD14C462643E7D1A8
:1061E000E8E79A4206DD4342584102234042184004
:1061F0000138E5E79A42E9DB4F45DBD806D00020BD
:106200004F45DDD20029E3D00800D9E7C445D1D8F5
:106210000020C445D4D2F5E7FF070000F0B557468B
:106220004E464546DE46E0B598460C034B00060058
:10623000924687B0240B5B0DCF0F002B6CD0DD4A4C
:10624000934200D186E0420FE400144380221204FE
:106250001443D94AC50094466344009300239946E9
:106260009B46434642461E03D20F5B005046904673
:10627000360B5B0D00D178E0CE4A93421DD0CE495B
:10628000420F8C4600996344F6008C4616438022E8
:106290009C44120463461643C200002000930099F8
:1062A000434601318C4649467B4001930F2900D972
:1062B0007EE0C24B890059588F465246009B3243BC
:1062C00000D056E1BB4900268C4663444946009302
:1062D0000223194389460220E1E743460193340033
:1062E000150083465B46022B5ED0032B00D1F3E101
:1062F000012B00D018E1002200240025019B12058B
:106300002243DB071A432800110007B03CBC90462B
:106310009946A246AB46F0BD2500054300D141E1B8
:10632000002C00D1ADE1200000F038FE0100020099
:106330000B391D2310005B1A3100350008388440EA
:10634000D94085400C439E48831A00930023994608
:106350009B4686E70500254300D01CE108220093F8
:106360000223002491469B467BE75246324300D1EC
:106370000AE1002E00D176E1300000F00FFE0200AD
:106380000B3A1D2301009B1A52460839DA408E4011
:10639000164352468A40009B8949181A03008C46CE
:1063A0006344002000937AE700240025814AA5E792
:1063B0002F0C2D042D0C2B00110C1204120C534326
:1063C0009846130028007B43994648434844834637
:1063D00040460B00000C824658467B4350440293D3
:1063E000814506D99A4680235B029946CA445346A2
:1063F0000293030C9B4643461B0400041B0C984667
:10640000030043440493330C99462B003604360CA6
:106410007343984633007B439A464B465D435F4344
:1064200043465544180C4019824503D980235B022A
:106430009A465744050CEB19059343461D042D0C51
:1064400000044019250C2404240C270057436A43F8
:1064500090462A003B0C9A464A43614341445144CA
:106460008344884503D980235B02984642443F0415
:106470000B0C3F0C0904C919270098464B4677437B
:106480005C436E435D433B0C9946A4194C44424423
:106490000395A64204D980235B02984645440395A0
:1064A000029B3F045B441E008342804123049846C4
:1064B000059B3F0C4744984676188E4289414744D5
:1064C00040423D18A846934649428A46C3449F42EB
:1064D000BF4180458041039BDA4498465346404281
:1064E0007F420743240C934592418A4589413F19D5
:1064F000DC0D049B75021D43681E854153465242C4
:1065000049420A43BF184744F60D7F0235435A02F9
:106510003C431543FB0100D4C1E001216A080D4052
:106520001543E2071543640826496144002956DDF6
:106530006B0709D00F222A40042A05D02A1DAA423F
:10654000AD416D4264191500E30104D580211E4A56
:10655000C900144061441D4A914200DD24E76207EE
:10656000ED08640249051543240B4A0DC6E6019760
:10657000B8E6104A0320944663444A460093032336
:106580001A43914652468AE64946012319438946F1
:106590000026012083E60C22009303230500914688
:1065A0009B465EE6042399460023009301330024B2
:1065B0009B4656E6FF07000001FCFFFF68780000DD
:1065C0000DFCFFFFFF030000FFFFFFFEFE070000C2
:1065D000002380240025444A019324038EE60120F1
:1065E000401A382800DD86E61F285BDD1F222300C5
:1065F0005242511ACB401900202803D03B4A624432
:10660000944025436A1E95412A000A4307210D0044
:106610000024154011425BD00F21002411400429B1
:1066200053D0111D914292415242A4180A002302F4
:106630004BD501220024002560E680231B031C4269
:1066400009D01E4207D133431C0343461500240BD7
:10665000254A019352E68022120314432403224A5E
:10666000240B01974AE600F099FC03001A0015324A
:1066700020301C2A00DC84E65646083B00229E405F
:1066800089E600F08BFC01000200153120321C2944
:1066900000DC4EE6340008380025844053E6009BB9
:1066A0009C4641E71249220061442E008D408A40F9
:1066B000C640691E8D4132432A43C4405307B6D0B9
:1066C0000F2111400429ACD1B1E765076402240B06
:1066D000D2081543002211E680221203144324033A
:1066E000014A240B0AE6C046FF0700003E040000F2
:1066F0001E040000F8B557464E464546DE460400E7
:10670000E0B51F0010000B03620F4E00CD0F5B0AB7
:1067100039031343490AE200440F2143C24C914616
:106720009246C0007A008046760D520DFF0FA242BD
:1067300000D1B4E001246740BB46BD4200D188E0EF
:10674000B41AA446002C00DCB2E0002A00D1C5E057
:10675000B54A964200D18BE2802212041143624670
:10676000382A00DDA1E11F2A00DD16E220270C00F7
:10677000BF1ABC400200A0466446B840E24044460E
:1067800014430200501E82416046C14022435B1AFE
:1067900049468C1AA145924152429B1A984643465B
:1067A0001B0200D417E143465B025B0A984643464E
:1067B000002B00D16CE1404600F0F0FB0200083AEB
:1067C000202120004346891A9340C8409440034347
:1067D000964200DD57E1961B711C1F2900DDCBE1BD
:1067E000202218002600521A94409040CE40CB4000
:1067F000621E94413043984600260443630709D043
:106800000F232340042B05D0231DA342A44164423F
:10681000A0441C0043461B0200D4DFE0824B01363B
:106820009E4200D1FBE04246804BE4081A40130030
:10683000710552075B0222431B0B490D0905ED0749
:106840001943294310003CBC90469946A246AB46EA
:10685000F8BDB41AA446002C58DD002A00D19EE0F1
:10686000714A964200D13BE18022120411436246F4
:10687000382A00DDC1E01F2A00DCBBE10C00203A11
:10688000D44022006446202C04D040273F1BB9404E
:10689000084380464446611E8C411443B1E00C001D
:1068A00004432AD0BB46BD422DD0614CA446B4441B
:1068B0006446002C5CD0941BA446002E00D015E149
:1068C0004D461D4300D1C3E1651E012C00D10CE2F1
:1068D000554EB44200D1F8E1AC460EE10A00024345
:1068E00000D136E12200013A012C00D1C6E14E4C24
:1068F000A44500D1F4E0944631E701246740BB464B
:10690000BD4200D01CE74A4CA446B4446446002C67
:1069100000D1CFE0941BA446002E00D15CE1424E92
:10692000B24200D1ECE18026360433436446382C71
:1069300000DDB3E11F2C00DD38E22026361B1C00F1
:10694000B4404F46A0466446E74044463C434F4669
:10695000B7403E00771EBE4134436646F340C91837
:10696000241884429B415B429846160088444EE0BE
:10697000304A741C144200D0D6E04A461A43002E16
:1069800000D05BE1002A00D1A5E10A00024300D05B
:10699000BBE14A465907D2080A43DB0827E00A0050
:1069A000024300D174E12200013A012C05D01E4CB3
:1069B000A44500D194E0944659E7484448459241A3
:1069C0005B189846040052429044434602261B023C
:1069D00000D5C4E0013E630700D011E74346B4464A
:1069E0005907E2080A43DB080F498C4540D061464D
:1069F0001B0349051B0B490D20E701430C00611ED9
:106A00008C414C444C4592415242904698444346F6
:106A10001B02E0D5044B01369E4200D09FE03100BE
:106A2000002300220AE7C046FF070000FFFF7FFFA8
:106A300001F8FFFFFE070000002A00D160E10A0014
:106A400002434DD04A465C07D20822438024DB082B
:106A50002403234207D0CE08264204D15D463300EA
:106A6000C20849070A43510FD200D20849070A4316
:106A70001100194300D1C8E1802109030B431B0316
:106A8000D5491B0BDAE6D549B61A0B409846B5E650
:106A9000200000F083FA020018321F2A00DC8FE683
:106AA000230008388340002492E608430200501E69
:106AB00082416DE6CA4C721C224200D0ADE04A46CB
:106AC0001A43002EB8D1002A00D158E10A0002432F
:106AD00000D059E14A465907D2080A43DB0886E745
:106AE0004A465907D2080A43DB08C1E7BA4DAA4211
:106AF00000D11EE180252D042B436446382C5DDC3B
:106B00001F2C00DDD0E0202567462D1B4E461C00C3
:106B1000FE40AC4034434E46AE403500FB406E1E56
:106B2000B541C91A2C434EE04A46141AA145924178
:106B3000524290465F1A3A004746D21B90461202D4
:106B400000D58BE04246224300D030E600230025EA
:106B50004DE74A465907D2080A43DB0844E7424654
:106B60009E4B61081A401300012214400C43DA07BF
:106B70005B089846144341E61A001F3EF240160097
:106B8000202903D04022511A8B401C43621E94419D
:106B900000233443984600261DE70C00203AD440D9
:106BA00022006446202C04D040273F1BB9400843F4
:106BB00080464446611E8C412243E9E54C4623430E
:106BC0001C00631E9C41041BA0429B415B42CB1AEC
:106BD00098465D461600E2E54E461E4300D1AEE003
:106BE000661E012C00D1FDE07B4FBC4200D107E1C5
:106BF000B4469BE664462022121B0C00944007001A
:106C00009040A0466446421E90416246E74044469A
:106C1000D1403C4304435B18F3E66F4CA24200D1E1
:106C2000D5E048445B184845894149425B18DC0778
:106C300040085B08984616000443CCE6002A00D0C2
:106C400082E00A00024340D1802300251B0313E7A2
:106C50004B07C2081A435D46CB08C5E64A46841A6C
:106C6000A0429241CB1A52429B1A98465D469EE53D
:106C70004A465907D2080A43DB08F9E64A46141A7D
:106C8000A14592415B1A52429B1A9846012686E51D
:106C90004A465907D2080A43DB08A5E64C46234377
:106CA0001C00631E9C415BE665461E00203DEE40D5
:106CB000202C05D040252D1BAB404C461C43A24642
:106CC0005446631E9C4134437DE74B07C2081A4378
:106CD0005D46CB08CCE60A00024300D136E74B07FD
:106CE000C2081A435D46CB0881E64A46841AA04290
:106CF0009241CB1A52429B1A98465D4601264EE5B8
:106D00004B07C2081A43CB08B2E64A46141AA145FB
:106D100092415F1A5242BA1A904612026BD54A4605
:106D2000841AA0429241CB1A52429B1A98465D4661
:106D300064E54B07C2081A435D46CB0898E64B074B
:106D4000C2081A43CB084FE60A00024390D04A46D5
:106D50005C07D20814438022DB081203134208D0D8
:106D6000CE08164205D1C0084907084304005D4615
:106D70003300610FE2004907D2080A4378E64B0767
:106D8000C2081A43CB0832E648445B184845924192
:106D9000984652429044434604001B0200D41AE62F
:106DA00042460E4B01261A40904614E666461F00E6
:106DB000203EF740202C05D04026361BB3404C46E1
:106DC0001C43A2465446631E9C413C43C8E5110047
:106DD0000023002232E5C046FF070000FFFF7FFFCF
:106DE000FE0700004A461418844292415B189846F8
:106DF00052429044E9E54246224300D1A6E6EAE544
:106E00004B07C2081A43CB0832E60022014913009F
:106E100014E5C046FF07000070B505000C480C03E0
:106E2000160049001A035B00240B490D120B5B0D81
:106E3000814208D0064900208B4203D13243100022
:106E4000421E904170BD01202C43FBD1F2E7C046A9
:106E5000FF0700000A0030B5134C5300090305007A
:106E6000090B00205B0DD20FA34204DD0F488342C3
:106E700002DD0F4BD01830BD8020400301430D4888
:106E8000C01A1F2808DD0C48C31AD9400B0058420D
:106E9000002AF0D11800EEE7084CC540A446634430
:106EA00099400B002B43F2E7FE0300001D04000095
:106EB000FFFFFF7F3304000013040000EDFBFFFF22
:106EC00010B5041E10D000F069F80F4B1B1A0A28E9
:106ED00011DC0B222100121AD14015300A035B0588
:106EE0008440120B5B0D01E0002300221B051343BD
:106EF0002000190010BD22000B3882405B051203F0
:106F00000024120B5B0DF1E71E04000070B5430076
:106F10004602C40FFE201B0E591C750A08420CD0F5
:106F2000E022920094466D07360B63441B05334301
:106F3000E40723432800190070BD002B14D1002D55
:106F40001BD0280000F02AF80A281CDC0B232A009A
:106F50001B1ADA40030015339D400E4B12031B1A17
:106F60005B05160B5B0DE1E7002D09D0320B802687
:106F70003603094B6D071643D8E700230026D5E7F3
:106F80000026054BD2E703002A000B3B9A40002560
:106F9000E3E7C04689030000FF0700001C2101232E
:106FA0001B04984201D3000C10391B0A984201D3EC
:106FB000000A08391B09984201D30009043902A2CA
:106FC000105C40187047C046040302020101010131
:106FD000000000000000000070B500260C4D0D4CB4
:106FE000641BA410A64209D1002600F021F90A4D25
:106FF0000A4C641BA410A64205D170BDB300EB5827
:1070000098470136EEE7B300EB5898470136F2E7B0
:10701000E8000020E8000020E8000020FC0000203C
:1070200010B5034B0100186800F06AF810BDC046A7
:107030008400002010B5034B0100186800F016F81A
:1070400010BDC04684000020002310B59A4200D134
:1070500010BDCC5CC4540133F8E70300821893429E
:1070600000D1704719700133F9E7000070B50500D1
:10707000002910D00C1F2368002B00DAE418280028
:1070800000F0B6F81D4A1368002B05D16360146048
:10709000280000F0B5F870BDA34208D92168601837
:1070A0008342F3D118685B6841182160EEE71A004B
:1070B0005B68002B01D0A342F9D911685018A04297
:1070C0000BD120680918501811608342E0D118686C
:1070D0005B68411811605360DAE7A04202D90C23C3
:1070E0002B60D5E721686018834203D118685B687C
:1070F0004118216063605460CAE7C046540A00200A
:10710000F8B50323CD1C9D43083506000C2D1FD276
:107110000C25A9421ED8300000F06AF825490A68FB
:107120001400002C1AD1244F3B68002B04D12100FD
:10713000300000F043F838602900300000F03EF8DD
:10714000431C2BD10C233000336000F059F803E0CE
:10715000002DDEDA0C2333600020F8BD23685B1BB2
:1071600019D40B2B03D92360E418256003E063686E
:10717000A2420ED10B60300000F042F8200007223E
:107180000B30231D9043C21A9842E6D01B1AA3501D
:10719000E3E75360EFE722006468C2E70323C41CFF
:1071A0009C43A042E1D0211A300000F007F8431CB4
:1071B000DBD1C7E7540A0020580A0020002370B52D
:1071C000064D040008002B6000F024F8431C03D196
:1071D0002B68002B00D0236070BDC046600A0020E1
:1071E0000023C25C0133002AFBD1581E7047000007
:1071F00010B5024800F00CF810BDC046680A002027
:1072000010B5024800F005F810BDC046680A00201D
:1072100070477047044A03001068002802D0C31862
:10722000136070470148FAE75C0A0020700A0020EA
:10723000F8B5C046F8BC08BC9E467047F8B5C046D5
:10724000F8BC08BC9E4670474972726967617469F0
:107250006F6E2056616C766520496E697469616C49
:10726000697A65640049727269676174696F6E203A
:1072700056616C7665204F70656E65640049727268
:1072800069676174696F6E2056616C766520436C26
:107290006F736564004F70656E0049727269676153
:1072A00074696F6E2056616C7665205374617475D5
:1072B000733A200043656C736975732074656D7053
:1072C000657261747572653A2000005EBCE2613FD0
:1072D000DD83C29C7E20A3FD1F41009D23BE46DBB3
:1072E00065F88C11AF32CA57E9745E00BC007701B3
:1072F000000000000B00000002000000040000007D
:10730000FF00FFFFFFFF0B00000000000A0000006D
:107310000200000004000000FF00FFFFFFFF0A0062
:10732000000000000E000000080000000400000043
:10733000FF00FFFFFFFF0E0000000000090000003B
:10734000040000001C000000FF0001000100090013
:107350000000000008000000040000001C00000005
:10736000FF00000000001000000000000F000000FF
:10737000040000001C000000FF00010301030F00D7
:107380000000000014000000050000002C000000B8
:10739000FF000200020004000000000015000000D1
:1073A0000800000004000000FF00FFFFFFFF0500D1
:1073B0000000000006000000040000001E000000A5
:1073C00006000001000106000000000007000000A8
:1073D000040000001E000000070001010101070079
:1073E0000000000012000000040000001C0000006B
:1073F000FF00000300030200000000001000000076
:10740000040000001C000000FF0000020002000059
:107410000000000013000000050000002C00000028
:10742000FF00030003000300000000001100000043
:10743000040000001C000000FF0001020102010026
:107440000000000002000000010000000200000037
:107450000000FFFFFFFF0200010000000800000025
:1074600001000000180000000200000400040800F1
:1074700001000000090000000100000018000000E9
:1074800003000104010409000000000004000000E2
:1074900001000000000000000400FFFFFFFF0400E7
:1074A00000000000050000000100000000000000D6
:1074B0000500FFFFFFFF05000100000002000000C3
:1074C00001000000000000000A00FFFFFFFF0200B3
:1074D0000000000006000000010000001E00000087
:1074E0000600000100010600000000000700000087
:1074F000010000001E00000007000101010107005B
:107500000000000008000000010000001E00000054
:107510001000000000001000000000000900000042
:10752000010000001E000000110001000100090020
:10753000000000000B000000010000000600000039
:107540001300FFFFFFFF0B00000000000A00000017
:1075500001000000060000001200FFFFFFFF0A000C
:1075600000000000160000000200000004000000FF
:10757000FF00FFFFFFFF06000000000017000000F3
:107580000200000004000000FF00FFFFFFFF0700F3
:10759000000000000C0000000300000004000000D8
:1075A000FF00FFFFFFFF0C00010000000A000000C9
:1075B0000300000004000000FF00FFFFFFFF0A00BF
:1075C000010000000B0000000300000004000000A8
:1075D000FF00FFFFFFFF0B000100000003000000A1
:1075E0000B00000004000000FF00FFFFFFFFFF0092
:1075F000000000001B0000000B0000000400000061
:10760000FF00FFFFFFFFFF00000000001C00000064
:107610000600000000000000FF00FFFFFFFFFF006A
:10762000000000001800000006000000000000003C
:10763000FF00FFFFFFFFFF00000000001900000037
:107640000600000000000000FF00FFFFFFFFFF003A
:10765000000000000E000000020000000400000016
:10766000FF00FFFFFFFFFF00000000000800000018
:107670000300000004000000FF00FFFFFFFFFF0009
:1076800000000000090000000300000004000000EA
:10769000FF00FFFFFFFFFF00000000000D000000E3
:1076A0000800000004000000FF00FFFFFFFF0D00C6
:1076B0000000000006000000040000001E000000A2
:1076C00006000001000106000000000003000000A9
:1076D0000100000002000000FF00FFFFFFFFFF00AD
:1076E0000000000002000000010000000200000095
:1076F0001400FFFFFFFF02000D0A006E616E0069BB
:107700006E66006F7666002E0000000000080042E2
:1077100014090000000C0042150A0000001000428D
:10772000160B000000140042170C00000018004265
:10773000180D0000001C0042190E0000000000009F
:1077400000000000412E00006D2E00003D2E0000C4
:10775000612E0000552E0000B52E0000992E00006D
:107760000000000000000000BF320000A531000052
:10777000F13000009D2F0000C52F0000D92F000020
:1077800046656174686572204D3020457870726579
:1077900073730000040309044164616672756974BF
:1077A0000012010002EF0201409A231B8000010138
:1077B0000203010000000000000000001942000068
:1077C0008929000031410000EB4000000541000024
:1077D000DD420000DD3E0000CD3E0000553F0000D0
:1077E000F73E0000C93E00005E510000FC50000062
:1077F000FC500000FA500000005100000051000051
:1078000028520000FA5000000051000028520000E9
:1078100000510000FA500000DE510000DE5100006F
:10782000DE51000062520000785C0000E05A000067
:10783000BE5A0000D25B0000BE5A0000165C000079
:10784000BE5A0000D25B0000E05A0000E05A00007F
:10785000165C0000D25B0000845B0000845B0000CB
:10786000845B0000245C0000B0630000DE62000066
:10787000DE620000DA620000E4620000E462000000
:10788000D0650000DA620000E4620000D06500000C
:10789000E4620000DA6200006E6500006E650000C0
:0C78A0006E6500003A6600000000000069
:1078AC00FFFFFFFF00C2010000000800080B0002F0
:1078BC00020200000904000001020200000524007D
:1078CC00100104240206052406000105240101010F
:1078DC000705810310001009040100020A000000D2
:1078EC00070502024000000705830240000000006B
:1078FC00FFFFFFFF000000008300000002000000FB
:10790C0082000000000000000000000000000000E9
:10791C0000000000000000000000000040420F00CA
:10792C00FFFFFFFF880000200000000000000000A7
:10793C00000000000000000000000000000000003B
:10794C00000000000000000000000000000000002B
:10795C00000000000000000000000000000000001B
:10796C00000000000000000000000000000000000B
:10797C0000000000000000000000000000000000FB
:10798C000000000000000000DD200000912200003B
:10799C000D290000752F0000B93E0000B520000035
:040000030000434571
:00000001FF
